:020000040000fa
:080000000002040000000000f2
:020000040000fa
:100400002f2222000e7f22000e0188000000000033
:100410000c000700a0022a000100200011000700c4
:10042000000020000000e000020032000000020096
:10043000000000007a630200000000000040da00c3
:100440000000fe004440a900e07920000000e00028
:100450000300320000002000a00188004440a800f2
:100460000000060091018800800078000000eb0089
:1004700015003700e280400032a0b4009101ba00bc
:10048000e280400032a0b4009102ba00e280400055
:1004900032a0b4000002eb00472bde00f507b200eb
:1004a000602ce10004003a000059eb008301e900f0
:1004b000fdff3e00040037006128e100010032002a
:1004c0000082eb00040007001101ba000200e00006
:1004d000e8ff3a00000006003159ba008301e90044
:1004e0000c0032002159ba008301e90008003200f3
:1004f0000400e00003003a00e280400032a0b400b3
:10050000f5ff370011d9ba008301e900faff3a007c
:100510008100e800e180400032a0b4000000060045
:1005200000000000000000000000000000000000cb
:1005300000000000000000000000000000000000bb
:1005400000000000000000000000000000000000ab
:10055000000000000000000000000000000000009b
:10056000000000000000000000000000000000008b
:10057000000000000000000000000000000000007b
:10058000000000000000000000000000000000006b
:10059000000000000000000000000000000000005b
:1005a000000000000000000000000000000000004b
:1005b000000000000000000000000000000000003b
:1005c0000040da000000fe001004b1000300350016
:1005d0009001b10001003c00100005000000050082
:1005e000800078001104b100030035009101b100d2
:1005f00001003c000050a000000006001004b10003
:10060000070035009001b100040034007000b10013
:10061000030035009001b10001003c00100005000e
:10062000000005006900e100040035006d00e100f4
:10063000030034000002b100010032000000050098
:10064000100005000a00fa0080017800e20f500057
:1006500028003e0000118100e10f50000800320028
:10066000802320000000e000050032000423200069
:100670002523200046232000800178000400370055
:100680000422200025222000462220008322200070
:10069000144090000004e000040035008009eb00e5
:1006a000144090000074a000104298001540900083
:1006b0000028a30003003a00154090000024a00089
:1006c000904298008001eb00070037001540900031
:1006d0000008a300fdff320063c078000000fb00ab
:1006e000000b78008301e800828f5100f7ff3a0089
:1006f0000800370030002000b0bf9f00c3bf9f003c
:10070000d1bf9f00e2bf9f006a80570000c0da009f
:100710006fb99700020078000080fa000000060020
:100720000a00fa00881f7800800178000000e000cd
:1007300029003a0000118100e10f5000080032004a
:10074000802320000000e000050032000423200088
:100750002523200067232000800178000400370053
:10076000042220002522200067222000832220006e
:10077000144090000004e000040035008009eb0004
:10078000144090000074a000104298000002eb009a
:100790000c003700130a2000154478006140640003
:1007a00002003a008301e900fbff3a000402e8007e
:1007b0009541780061c061000500320017007800a3
:1007c0008058780004035100820f5200f1ff3a0074
:1007d000060051000800370020002000a0bf9f0045
:1007e000b3bf9f00c1bf9f00d2bf9f006c80570066
:1007f00000c0da005fb897004f0478000080fa006c
:1008000000000600020ab900001bb9000200b8008f
:100810008100420081004300000006006022b80011
:10082000060220000000d0008180d2000482d200a5
:100830008582d2000000a0000202520083825a008a
:10084000030031000202420083824a000000a1003e
:100850000603e900f3ff3a0000000600889fbe008f
:100860008a9fbe00010578000100e0000400350009
:1008700008003c000000e0002000320005003700c6
:1008800060001000e080180002003b0001f02c0026
:100890001a0037000004be006011b8006b09200088
:1008a0000982cf00020039000882cf000441b00065
:1008b000694252000e00320008003b008281710044
:1008c000610164008904d1000884d3008b05e8002d
:1008d0000442e800f9ff3a0005003700080444002c
:1008e00089844c008b05e9000442e900fbff3a00d3
:1008f000180207000af0a70001f0a0004f05be0093
:100900004f04be000000060003f0a200889fbe0056
:100910008a9fbe008c1f7800340207003b02330020
:100920006450e1004f0032006420e10052003200c8
:1009300003826c0007003b000905d0000306d000cd
:10094000820f54000c065d000200390002003200e4
:1009500089017800030678008582550004003d0077
:100960000003fd008103fd008502ea008b85420043
:10097000840f720002003b0060001000e08018004d
:100980006011b8000005eb007a28e1000a00390088
:1009900006007800c75ddd00f707b20087807500ac
:1009a0002d003700828171000a0178006105600026
:1009b0008180d1000080d3008502e900f9ff3b006f
:1009c000060440008784480002003b0060041400d5
:1009d000e0841c000988a300070032008a817100ae
:1009e00082817100610164008904d1000884d30010
:1009f0008b05e800170037000978a30013003a00c0
:100a00000b00e000130034008b05e90008044400eb
:100a100089844c000a4474000978a3000d003a0050
:100a20000b00e000070034008b05e90008044400d7
:100a300089844c0001003a000b0020000978a300d3
:100a4000f7ff32000001eb000200370082817100e5
:100a50000a017800bf0107000cf0a70001f0a00018
:100a6000f30137006420e10002003a00838f6c003c
:100a7000f30133000801be000200be00ec013700a4
:100a8000889fbe008a9fbe008c1f7800d701070098
:100a9000de01330003866c006450e1002e0032005a
:100aa0006420e100330032006150e1002f00320089
:100ab0006120e1003100320085855500eb07b00070
:100ac0000900200008042000050037000804440045
:100ad00089844c000a0031000603430087834b00e1
:100ae0000001530081815b00f8ff33000203be0068
:100af0000800a0000804440089844c00f6ff390077
:100b0000c639dd00830173000100320013002000ac
:100b10008904d1000884d3000998a300050032009d
:100b20000800a7000300a0008904d1000884d300b6
:100b30008b05e8008904d1000884d3000001eb0094
:100b40000281d2008301070001f0a1000cf0a70090
:100b500001f0a000b60137006420e100b8013200c6
:100b60000801be000200be00f7ff37006120e1006f
:100b7000b30132006000b800f3ff3700000020002e
:100b800001f82700f0ff370081037800af0107006c
:100b90000001be006000b8000478a30013003a0012
:100ba0006220e10015003e000d0039008301d100f4
:100bb0000281d3008180d3008301d1000281d30060
:100bc0008180d3008301d1000281d3008180d300d2
:100bd0000538b000c42add00f300b2008381720042
:100be00007f0a70003f0a00000000600f3ff2700b5
:100bf000f2ff2f006110b900fbff370003ff270051
:100c0000f7ff370007f0a200a50137002800fa001f
:100c1000889fbe008a9fbe008c9fbe0003866b002b
:100c20001c0207006400e100440032006408e10097
:100c30004a0032006100e100460032006108e10034
:100c400049003200ec0647006000b8003d02be00db
:100c50003d03be00f48657006011b8003d04be009d
:100c60003d05be007d0320000b0037000000a00002
:100c70008d06e900130032000402420085824a001a
:100c800006034b0087834b00000040008180480032
:100c900002014900838149000802520089825a00fa
:100ca0000a035b008b835b00f0ff3b0008024200fd
:100cb00089824a000a034b008b834b008d06e900b2
:100cc000edff3a008482720086827200f707b2005c
:100cd0008782720001003200150020001e0490007f
:100ce0003e0b900006035400e63fb0000368a300eb
:100cf000070032000000a7000500a0008301d1001a
:100d00000281d3008180d3000080d3000603e80075
:100d10008301d1000281d3008180d3000080d30001
:100d20000002eb000482d200f301070003f0a100ef
:100d30000cf0a70003f0a000ea01370064024700ae
:100d40006408e100e40132003400be003401be005a
:100d5000f6ff37006108e100df0132006011b800e2
:100d60006000b800f1ff370003ff270002002000f9
:100d7000fbff37001400fa00889fbe008a9fbe0068
:100d80008c9fbe000005be000206be006800470042
:100d90000c90be000a90be00030207006400e10050
:100da0001a00320016003e006100e1001a00320015
:100db0006e049000fe0490000e0b90009e0b9000bd
:100dc0006011b8009e0590000b38b100d5012000dd
:100dd00082817100610164008703d1000683d30022
:100de0008984d3000884d3008502e900f8ff3a0023
:100df000d80007000df0a70001f0a000b9013700ee
:100e0000f1ff2700f0ff2f00b601370001f827009f
:100e100000002000f7ff37006000b800f5ff370042
:100e20000001eb0007023700889fbe008a9fbe00ca
:100e30008c1f7800ed000700f400330003866c007f
:100e40006450e100240032006420e10027003200f9
:100e50006150e100220032006120e10021003200f7
:100e60008b854200eb07b1000134b800003ab800ae
:100e70000804420089844a00013ab8000030b800f2
:100e80008880400009014a0004003300000040004f
:100e900081804800020149008b05e900c909dd0095
:100ea000830170000100320013002000c814de002e
:100eb0004814dd004709de001200b200c808de0059
:100ec00008847000a300070001f0a1000cf0a70047
:100ed00001f0a000d60037006120e100d800320008
:100ee0000801be000200be00f7ff37006150e100bc
:100ef000fcff3a00d20037000081eb00d10137003f
:100f0000889fbe008a9fbe008c1f78000004be0030
:100f1000ce0007000478a30026003a006120e1001b
:100f20002500320009f8a30025003a006420e10002
:100f300021003200f507b1000508a30002003200cd
:100f400000004000818048006044b8000310200089
:100f50000200200000004000818048000805440095
:100f600089854c000a0541008b8549000a0550001f
:100f70008b855800030033000a00be000204740091
:100f8000838474008301d1000281d300830f710038
:100f9000f0ff3a008904d1000884d30060014900c1
:100fa00082017800c1adde00fb07b00069000700d8
:100fb0009f0037000960a0000800be009c003700b9
:100fc0001202200032fe8800f0ff2f00f1ff270000
:100fd00097003700889fbe008a9fbe008c1f780054
:100fe000820007001002200002003b0030fe880053
:100ff000860037008a0062006408e10002003a00bf
:1010000030fe88008e0037006108e100fcff3200ee
:101010000800be000304780099fe070001f0a1005b
:10102000f101070008f0a600040037000001be002f
:1010300091042400b0fd200033fe070009f0a70052
:1010400001f0a2007a0037001400fa00889fbe0069
:101050008a9fbe008c9fbe000004be000205be0039
:10106000680047000a90be000890be004e010700cd
:101070000070a7000bf0a1000bf8a30016003a00c7
:101080009e0290003043200080825200b0fe2f006c
:101090000028e1000d003c00b0fc2f000028e1001a
:1010a0000d0034001e0990008e0890007e00900014
:1010b0000501b0000201d1008180d3000080d3007f
:1010c0008502e800fbff3a00060137000100280016
:1010d00000002000030137006000b8000101370064
:1010e0000001be00590007000470a70003f0a10032
:1010f00003f8a30013003a006509b10010003200a4
:10110000090035006928e1000200350001002800cf
:101110000000050000004000818048008502e900d1
:10112000fcff3a0000000600f88f42000500350081
:101130008100d1000080d3008502e800fcff3a0066
:10114000000006008000eb00000005000400200005
:101150000a02370081002000618055000b003d002d
:101160000b00200061fe2f000100e1001d00340093
:1011700082817100610164008904d1000884d30078
:101180000000e800faff3a007100200061006400ee
:101190000300700002006000090032006104440096
:1011a000e0844c000988a500050032008b05e800aa
:1011b0006808e10002003a008904d1000884d300e5
:1011c000f20f20000258e10005003d00c75ddd0080
:1011d000f907b20089807500080078000000060059
:1011e0000bf827008b007800000005000004be000b
:1011f000160007000003be000405be000200be008a
:1012000012000700844f7500000006000200be00b7
:101210006450e100050036006420e1000200360061
:101220000968a30001003a000800be000160a000a8
:101230004f0678004f05be004f04be0000000600b8
:10124000f0ff2f00f1ff2700f9ff3700c70ade008b
:10125000f107b200f50fb20008003200e1cf420002
:10126000020032000170a00024000500810f700010
:10127000010032000408050044000500810f7000e1
:1012800002003a00140005008502e9000000400059
:1012900081c04800fcff3b000170a0002400050055
:1012a0002800fa00889fbe008a9fbe008c9fbe0067
:1012b00007067800878669000c003b00030478006d
:1012c0008704780008f0a10009f0a100840f500005
:1012d000858f5800860f5900890f5c00030033008a
:1012e0000cf0a20001003a000cf0a1006900070018
:1012f0006400e1005f003200780147006408e1000b
:10130000610032006c014700748557003200be0056
:101310001201be003a04be001a05be001e03900072
:10132000be0a90008503530006003d000004fd0046
:101330008104fd000205fd008305fd008703ea002e
:10134000050378000df8a3000400320060041400c7
:10135000e0841c0060051d00e0851d006022b800cf
:101360007d0320000d38e1008006eb000b00390002
:101370004433dd00f300b20083017300390037000d
:10138000848272000d027800e10664008b85d10032
:101390000a85d3008984d3000884d3008703e90039
:1013a000f7ff3b0008004000898048000a0149001f
:1013b0008b81490004003b0060001000e0801800b1
:1013c00060011900e08119000358a30009003200f0
:1013d0008d82720084827200610260008301d100fc
:1013e0000281d3008180d3000080d3000603e8008f
:1013f0001b0037000348a30017003a000600e00076
:10140000170034000603e9000d00a30000004800a7
:101410008180480002014900838149000348a300fc
:101420000f003a000600e000090034000603e9005e
:10143000000040008180480002014900838149008a
:1014400001003a000003eb000348a300f5ff32005f
:101450006022b80002003700848272006182660058
:101460002500070003f0a1000cf0a70003f0a00086
:101470001c003700640147006408e10002003a00e4
:101480000df8a30014003a003200be001201be00a5
:1014900014003700680447000294be000094be00a8
:1014a000fc0447008694be008494be0009007800c6
:1014b0003d000700080078003b0007009900780015
:1014c000814f70000b003b000800be004601070082
:1014d0004f00b10003003700f3ff2700f2ff2f0099
:1014e0006110b9004f06be004f05be004f04be009c
:1014f0000080fa00000006001800200057002000bd
:10150000080453000d003d000600200097fc2f004a
:101510000740e1001e003400848272006102600016
:101520008301d1000281d3008180d3000080d300e9
:101530000804e800f8ff3a0047002000610460005a
:1015400005047400040464000d00320061004000d2
:10155000e080480060014900e081490003b8a5002f
:10156000070032000603e8006538e10004003a0095
:101570008301d1000281d3008180d3000080d30099
:10158000f87f20000830e1000300350008037800f0
:101590006000b8006011b8004433dd00f300b20011
:1015a0008301730000000600800078005002be0036
:1015b0005003be004439de00f700b200f37f200084
:1015c00003016100090032000218e10016003a0030
:1015d000850172008301730083817300000820007d
:1015e00015003a004000200013003700850172000a
:1015f000830173008381730005003a0004a8be00d4
:1016000006a8be00100020000b0037000201e90010
:101610000402420085824a0006034b0087834b0088
:101620000748a300f9ff32000740a00004a8be004d
:1016300006a8be00200020008000980092009800bc
:1016400000000600889fbe008a9fbe008c9fbe00df
:10165000820578000004be00fcfe07000800be0002
:101660006420e1000700390002003a00f1ff270082
:10167000f0ff2f000160a0001202200032fe88005f
:10168000550037006120e10003003a000b00a7007d
:1016900001f823005000370001f0a10002002100f2
:1016a00093642400de0007000800be00040035003b
:1016b000b2fd2000930c2400db0007000004be00f4
:1016c0000005eb000b00a6004f0dde0001f0a100ad
:1016d0000004be0032982f0023ea2300d2fd070049
:1016e0000001eb0003f023000b00a70003f8230028
:1016f00086fc0700ce0007000000a7000a00a20039
:1017000056fc07000b00e00003003200020020003e
:1017100003f023007cfc070001f0a2000006be00dd
:101720000200200093042400bffd07000801be0052
:1017300076fc0700809fbe000c00be0022a22a009b
:10174000d3a72300b8fd07004f01be006ffc0700c0
:101750000004be0001f0a100020020000398230055
:10176000af0007000800be00190035000001be00f0
:10177000adfd07000006be00b2c52900e3622300ec
:10178000a9fd070022222b00f3942b005ffc070029
:101790000c01be00a4fd0700e273280083c02300f3
:1017a0005afc07000c01be009ffd070042aa2a0058
:1017b000a3e22b0055fc07000c01be009afd0700b8
:1017c0000801be0098fd07000801be004ffc07009d
:1017d0000a00a70001f0a2004f06be004f05be00a0
:1017e0004f04be0000000600889fbe008a9fbe0016
:1017f0008c9fbe000004be0094fe07000800be00df
:10180000890678006420e1000800390004003200f5
:101810000160a0001202200032fe88005300370051
:1018200091fc2300b0fd20004e0037000006eb00c5
:1018300009f0a10003f82300020020000800be0008
:10184000770007000600340001f8230000002000a4
:101850000801be008afc07000004be002c00200026
:101860000800be0093e82300320a23006c00070042
:10187000120034000801be00d1fd2300703d2b0092
:1018800022fc07000005be00b3f32300f27a260015
:101890000800be0064fd070003f8230002002000da
:1018a00019fc07000801be0018fc07000a01be0071
:1018b00073fc07000004be000c06e8000800be0030
:1018c00001f0a1000200200003982300540007004b
:1018d0000800be00160035000801be0052fd0700da
:1018e0000005be0032cd2c0043fb230007fc07009f
:1018f000809fbe001269280003d52b000a00be009d
:1019000049fd0700620f210013ef2b00fffb0700ca
:101910000a01be0044fd07004f01be0058fc07004d
:101920000801be0040fd07000801be00f7fb0700ec
:101930000c00e0000b0032000c10a70001f0a20028
:10194000b2fd200093fc23006260e100040032003d
:1019500022a9200063f023000c10a70063f82300e5
:10196000eafb07000df0a70001f0a2004f06be0041
:101970004f05be004f04be0000000600889fbe0059
:101980008a9fbe00841f780018fe07004f00780071
:1019900011003300f0ff2f00838f6c0006003b0026
:1019a000040565000a00a7000800370009f0a6003a
:1019b0001000200008003700820f5400838f5c0065
:1019c000030039001000200001003e00000020004c
:1019d00009f0a7000000ea004f05be004f04be005a
:1019e0000000e00000000600e48240001078a30040
:1019f00007003200640240001178a3003400be00ea
:101a00001401be00040032000330a70000000600ed
:101a10003500be001501be000330a0000000060026
:101a200014002000d5ff37000400200021003700fb
:101a30000001be0005fe07000470a70003f0a1002e
:101a40006509b100160032000d0035006828e1007c
:101a500006003500f0ff2f00f1ff27000300e00033
:101a600013003b00010028000000050000004000ba
:101a7000818048008502e900fcff3a000800370039
:101a8000f88f420002003c008000eb0000000500df
:101a90008100d1000080d3008502e800fcff3a00fd
:101aa0000300e00002003b0060001000e08018002e
:101ab00000000600889fbe008a9fbe008c1f780031
:101ac0004f26dd00c9fd0700d0fd33006120e10095
:101ad000430032006250e10041003e003e00390008
:101ae0006420e1003c003200058255000f003b00fd
:101af0000402e80038003a00800f5300818f5b0039
:101b0000350034000800be0003f0a10001f0a6007b
:101b100003f0a0000cf0a7007cfb0700c4fd370019
:101b20000603430087834b000c4646000005530024
:101b300081855b00020033000a03be000c00a00098
:101b40000402e900f6ff3b00850578000602430029
:101b500087824b0004003a006000b80009f0a7003b
:101b600001f0a000b2fd37000002520081825a004d
:101b70000704e000040033000603430087834b00a2
:101b80008b05e900faff3700090578000604be005e
:101b90000203be006011b8006efd0700e00f5200a6
:101ba000e08f5a000700350002003c000c08a3003b
:101bb000040032000601be0003f0a0000cf0a700f4
:101bc00052fb07000a85680001f0a1000af0a70097
:101bd00001f0a00096fd37000800be0094fd37001c
:101be000100220000cf0a60030fe880094fd3700a3
:101bf000811f78000100e00002003d00600010003d
:101c0000e08018000300e00002003d0060011100c8
:101c1000e0811900ff0107004f00e00002003b00d7
:101c200060001000e080180000000600881f7800a7
:101c3000000478005001be004000be0004004000d7
:101c4000858048000601490087814900009cbe004c
:101c50000294be000400e1000588e1000690e10066
:101c60000798e10002003100680044001008e80015
:101c70004f04780000000600f4874700889fbe00ec
:101c80008a9fbe008c9fbe008e1f78000205be009a
:101c90000004be00d4b79f00e5b79f00f6b79f00d1
:101ca00087bf9f000000eb00c0b79f00b0b79f0048
:101cb000a0b79f0090b79f0080b79f000d04200041
:101cc000bfb097004fb09700000140000000e00057
:101cd0000f003d004f08de0000007100c0b79f00fc
:101ce0009e00070001003d0012002000a100070037
:101cf00001003d0012002000a6000700b10007000f
:101d0000b60007000f004000c8ff070022003700a0
:101d10004f08de0000067100ccb79f008f0007005f
:101d200001003d00120020009200070001003d006c
:101d30001200200097000700a20007000fb29700d2
:101d40009fb297002fb39700bfb39700a900070079
:101d50000000520081805a0002015b0083815b0019
:101d600080b79f0091b79f00a2b79f00b3b79f00b5
:101d70000007eb009f0007000020e10001a8e10040
:101d800002b0e10003b8e100010031001e002000b4
:101d90000e005600c0b79f004fb297000400e0004d
:101da0000700350010002000010020006011b8007d
:101db00008047000898470000a0571008b85710029
:101dc0008d06e900beff3a000400e00003003d007c
:101dd000820007000f00400094ff07004fa8970003
:101de0000000e00004003a000fb497009fb4970091
:101df0002fb59700bfb59700940007004f077800f4
:101e00004f06be004f05be004f04be004f01b1009b
:101e100000000600881f780018002000881f780046
:101e200095ff07008f87e9004f0478000000060047
:101e3000801feb0090ff07008f87e900000006007d
:101e4000889fbe008a9fbe008c1f78006e0007002e
:101e500007003d0073000700e00f5b00e08f5b00b0
:101e600007003d00320007000006eb0004003700c9
:101e70003400070002003d002a0007001c0020007b
:101e800072000700e3ff07000203be000002be006d
:101e90000c00e00001003200220007000400be0038
:101ea0000601be004f0678004f05be004f04be007d
:101eb00000000600889fbe008a9fbe008c1f78002d
:101ec0005100070005003d0056000700e00f5b00d1
:101ed000e08f5b0006003d0004003700190007009a
:101ee00003003d006000b8006011b800100007005a
:101ef00056000700ceff07000203be000002be002e
:101f00000c00e00001003200060007000400be00e3
:101f10000601be004f0678004f05be004f04be000c
:101f2000000006006000b8006011b8000000370033
:101f30000402500085825800060359008783590027
:101f4000000006000006eb00e00f5200e08f5a0090
:101f5000e00f5b00e08f5b000000060001804000a6
:101f600090b79f000001eb008fb097000100e000e8
:101f7000000006000200700090b79f000180400042
:101f800080b79f000001eb00ffa897000100e00070
:101f9000000006000200700080b79f000180400032
:101fa0006faa9700cf20de0001007000f0af9f0005
:101fb00004024200250007004f18de0000027200f4
:101fc00000000600e4af9f000804440089844c0030
:101fd0000a054d008b854d00000006003fb29700ba
:101fe000cfb297005fb39700efb3970000fe2f00ca
:101ff000000006003fb09700cfb097005fb1970098
:10200000efb19700000006000205be000004be000c
:10201000e00f5000e08f5800e00f5900e08f5900aa
:10202000000006006000b8006011b800080450000d
:10203000898458000a0559008b8559001c0020002e
:10204000e00f5200e08f5a00000006000800be00ba
:102050000a01be00000006002800fa00889fbe00aa
:102060008a9fbe008c9fbe0003866b0009fd07009f
:102070000028a30064003a000128a30067003a008a
:102080000008a30062003a000108a30065003a00be
:102090001e009000be08900081064000ed3fb10098
:1020a000f4805700ee019000111ab8008e099000dc
:1020b000311bb8009e099000311cb800511db800ba
:1020c000f485570046000700fe0190003a00070023
:1020d0008b85e8003e0007008e0990004000070055
:1020e000ee019000340007008b85e80038000700ff
:1020f0008e099000400007009e0990001b18b80050
:10210000890440000a854800fe0190003400070061
:102110008b85e80038000700ee01900030000700d2
:102120008e0990001b18b800890440000a854800f9
:102130000a98a30008003a000402420085824a007f
:1021400006034b0087834b0008044c0089844c0035
:102150000a054d008d06e900848272008502730035
:102160004c3add00850272000100320015002000ab
:10217000443ade001400b2004538de00cb45dd00f5
:102180000b007000c540de00cb4ddd008b80700081
:102190004549de00cb55dd000b017100c551de0065
:1021a0000d037800d4fc070003f0a1000cf0a70099
:1021b00003f0a000cbfc37001b18b80085024000dc
:1021c00006834800e0834b0060044c0007003700a2
:1021d0001b18b8000603400087834800faff370049
:1021e0001b18b8008703400008844800e0844c00b6
:1021f00060054d00000006001b18b80008044000f0
:1022000089844800faff37000108a300b2fc3a00b5
:102210005800be005801be00e3ff37000008a300cd
:10222000adfc3a0009047800f9ff37008f1fd10098
:102230007b0007008f87e9000000e0000000060037
:10224000801feb00760007008f87e9000000e000a8
:10225000000006009b00070005097800000006004a
:10226000809feb006e0007008f87e9000000e00010
:10227000000006001400fa00889fbe008a9fbe007e
:102280008c9fbe000004be000205be00680047002f
:102290000a90be000890be00c3fc07000070a700b3
:1022a0000bf0a1000bf8a30020003a009e0990005b
:1022b0000e099000fe0090006e0090009e029000bb
:1022c000344320008482520086fc32000a003c0025
:1022d000b4fc2f000428e100140034008301d10075
:1022e0000281d3008180d3000080d3008502e80002
:1022f000faff3a007bfc3700b40020000428e1001c
:1023000007003c00000040008180480002014900b5
:10231000838149008502e900faff3a0071fc370029
:102320000300280002002000010037006011b800ff
:102330006000b8006bfc3700889fbe008304780003
:102340000300e0002c00350003003c000082700018
:10235000040271002600320036432000c500200030
:102360008383cf000a0039000541b1008283cf008a
:10237000070039000541b1008183cf000400390016
:102380000541b1008083cf00010039000541b10053
:1023900085c353006022b800120032000a003b00df
:1023a00084827200610260008301d1000281d30047
:1023b0008180d3000080d3000603e8008743e80053
:1023c000f7ff3a0007003700000040008180480016
:1023d00002014900838149000603e9008743e900bf
:1023e000f9ff3a0044fc070009f0a70003f0a00041
:1023f0004f04be000000060060001000e0801800de
:1024000060011900e0811900d3ff3b00033e2c005e
:10241000f7ff370001f907000400be0000000600c6
:10242000889fbe008a9fbe008c9fbe000404be0031
:102430000605be00809fbe00829fbe002e000700e2
:10244000040678000800be000a01be002a0007004a
:10245000840678004f03be004f02be008d4f760009
:102460007fb0970013003300f0ff2f008b8f6b00bd
:1024700006003b000d0666000c00a7000a003700ae
:1024800007f0a600100020000a003700880f520055
:10249000898f5a008a0f5b008b8f5b000300390025
:1024a0001000200001003e000000200007f0a700ff
:1024b0000000ea004f06be004f05be004f04be00fc
:1024c000000006000003be0060fb07006220e10080
:1024d000020032000600be0005000500e507b1005d
:1024e000f107b20004f023008480700007f0a70019
:1024f00001f0a0002400050005ff2700058261000f
:10250000070032000428e100010032002400050029
:102510000600070001003a00440005000408050019
:1025200002000700f9ff3a00140005006f82610005
:1025300081027000850271008502720000000600b1
:1025400017e2a9009a20a9009a40a9008a20a900b0
:102550008a40a900000006008a20a9008a40a9003c
:10256000e7416000c419dd00c10b200091407800f4
:10257000f2c8b30082c0600083c070008000fd001c
:10258000bce0b7008000fd00800178000307b200c6
:10259000c419de00d10b20009140780082cfb30037
:1025a00082c0600083c070008000fd00bde0b70005
:1025b0008000fd00680160004311de00024141001f
:1025c000a1092000914078000114a10082c0700090
:1025d0008000fd009ae0b7008000fd000008b20016
:1025e0004700de004200dd00a10920009140780094
:1025f0000124a10080c07000010078009ae0b700bb
:1026000000000600a1108800b0108800000006003d
:10261000800078003004e000feff3a000100500026
:102620000000e900000006000400fa00e0bf9f007f
:10263000e4815700812978000002eb000f00370089
:102640006fb89700904078007fb8970010407800ee
:102650000402e80080cf5000040032008180fb00bb
:102660000080fb0000805000070037006fb8970023
:102670000000e800e0bf9f009309e800820f5200cd
:10268000efff3a000000eb000080fa0000000600b7
:1026900010417800814f5100040032000000e80032
:1026a0000204e000faff3a000000eb000000060020
:1026b00080017800000178003140780000597800ee
:1026c0000004e000fcff3a00030078000000060070
:1026d0000001780000c2b300010037000201e800e9
:1026e0009240780080cf5000fcff3200e9cf5000cc
:1026f000faff3200d0c2b30080cf500003003a008e
:102700000201e80014c0b300050037000042eb00ee
:10271000b0c2b30080cf500001003a000201e800cf
:102720008000eb0005fd2f00040037006a08b900a7
:1027300000804100850040000201e8009201fb009a
:1027400005804100e90f5000f8ff36000404e00066
:10275000010032008100ea0001007800000006005c
:1027600080017800d01620000018b800421ade0060
:1027700004024000e08248004206200011000900e7
:102780008281d8000001780002025200e0825a00e3
:1027900002192000110009008281d8008000fd008c
:1027a00001004200e0804a0000000600889fbe0051
:1027b000000378000102e80010bf200000a2b90069
:1027c00010442f000400400044062000811f7800c0
:1027d000110009000480d800cf00780000014100fa
:1027e0006114b800e18f5000140036000219200077
:1027f000110009000283d800010078000000e00009
:10280000070032006300630008003a00110009006d
:102810000483d8008000fd000000e00003003200c7
:1028200010002000010020000200370020002000de
:10283000010020000004540081845c000600e900cf
:10284000c7ff070008004000898048004f04be0011
:1028500000000600889fbe008a9fbe008c9fbe00bd
:1028600000067800d0069000a0fb2f0000804600f4
:102870000081eb008081eb0021032000810f5000dc
:1028800033003e00120020008000eb00207b20007f
:10289000c6ff07000005be00c0762000008046008d
:1028a0003c019000cc009000c0ff07000004be0077
:1028b0000a0550008b85580072002000030020009c
:1028c0000a00be00cafc070064004000e080480027
:1028d0007200200003002000c5fc0700600698007d
:1028e000b0762000008046009dff070000045400e1
:1028f0000804e90078069800820120000300200007
:102900000a00be00bff707002c019000cf91de0047
:102910000000410081804900c20320000300200024
:10292000b8f707001c019000cf91de0000004100c5
:1029300081804900c203200003002000b1f7070096
:102940001c017800cf91de00000141008181490027
:102950000200be004f06be004f05be004f04be0081
:102960000000060010417800b141510003003a0018
:102970000000e8000204e000faff3a000300fb0058
:10298000000006000c00fa00889fbe0000047800da
:10299000cfb09700f0ff2700d0bf9f008004eb006e
:1029a00099bf9f0088bf9f00a8bf9f00200c2000f8
:1029b000b0bf9f0078815700708057006d000700fe
:1029c0000fb89700094878000fb897000804500026
:1029d000080078004f04be000080fa0000000600e6
:1029e0000c00fa00a0bf9f00c0bf9f0008ff0700b7
:1029f000b0bf9f00f0bf9f00100c2000d0bf9f0011
:102a000074815700efb097006c8057008305070072
:102a10000080fa0000000600889fbe008a1f780030
:102a2000804078000004e00021003d008040ea0082
:102a3000d0c6b30080cf5000090034008104fb00f1
:102a400042062000110009008204d800000178002d
:102a5000010078004311dd008afc21001f003700cf
:102a60000100fb0083fc210039003700a200200098
:102a7000110009000200d800000178000100780070
:102a80004311dd00030141004300dd00030040006d
:102a90003002be002003be0042209000d2209000f1
:102aa000f2219000622190006bfd07002e0037009c
:102ab000d0c6b30080cf5000230034008104fb0057
:102ac00042062000110009008204d80000017800ad
:102ad000010078004311dd008a0722000a0141004d
:102ae000a8002000110009000800d8004300dd0004
:102af0000a00400040229000d02290006023900005
:102b0000f02390000288900092889000b289900093
:102b10002289900050fd0700801f78000102780094
:102b2000110009008804d8000102fd004f00780060
:102b30000402fb004322dd000a0242005403be00ef
:102b40004402be00d8ff37000100fb0083072200cb
:102b5000eacf5000c5ff3c004300dd000300400009
:102b60005001be004000be004f0578004f04be007b
:102b7000000006008f03b000889fbe008a9fbe0041
:102b80008c9fbe008e1f7800e0b79f00f1b79f00ba
:102b900082bf9f000000eb00a0b79f00e604370053
:102ba0008001eb0050c2b30080cf5000090032001a
:102bb0000100fb00efb0970039060700e10f40006d
:102bc000dd043200afb097008100e800a1b79f009c
:102bd000d90437007fb1970092407800d0c2b3008b
:102be00080cf50000c00320007003c006d405000c8
:102bf00080cf50000d0032006b40400080cf50006d
:102c000019003a000e00370000c3b30080cf500017
:102c100015003a000f0037000330a0007fb2970084
:102c20000402e800f4b79f00eaff37000300a000a9
:102c3000ffb297008502e800f5b79f00e5ff370077
:102c40000310a0007fb697000c06e800fcb79f00b9
:102c5000e0ff37000320a0007fb097000000e800ed
:102c6000f0b79f00dbff37000318a300010032001c
:102c70000300a1000338a300010032000320a100db
:102c80000100fb0002fd2f0002004000e90f500090
:102c900010003e008000eb00c1b79f0002027800e8
:102ca0004fb197006a10b900ffb297001501fb0001
:102cb0000001410004014100c2b79f005500fb0024
:102cc000f5b79f0004004000e90f50000d003e00e2
:102cd000f3ff37000006eb00ccb79f00a0c2b300a3
:102ce00080cf500007003a000fb89700c00078006e
:102cf00080bf9f00c1b79f007fb197000201e8002d
:102d0000f2b79f00e0c2b3007fb29700944f10006b
:102d100021003a00830678000de0a0008400e8005e
:102d200064405000914f100004003200f1b79f0042
:102d30008002eb00b5b79f00100037000fbe970070
:102d40004c0078008cbf9f00b0b79f00ffb0970089
:102d50008180e800f1b79f00130037003fb2970071
:102d60006a20b9000000410003004000b0b79f0096
:102d7000ffb297008502e800f5b79f007fb6970085
:102d80001c01fb0003fd2f0003004100e90f500070
:102d9000f2ff360004003700830678000dc0a00063
:102da0000000eb00b0b79f007fb19700b240780001
:102db000f2b79f00c17f9f00c0c6b30080cf500014
:102dc0002700320014003c006840500080cf5000c3
:102dd0009d00320009003c006c40500080cf500044
:102de000290032006b40400080cf5000720032005a
:102df0000104e000560432008e00370060c6b300c4
:102e000080cf50001c0032006340400080cf500053
:102e100088003a008c00370030c7b30080cf5000e4
:102e20001c00320007003c006440500080cf50007e
:102e3000130032000040e80080cf50007d003a00cf
:102e40001100370050c7b30080cf50007d00320022
:102e50006340400080cf500076003a000b003700fe
:102e6000000028000d48a30001003a0000012000e6
:102e700080867600ccff37000da0a00072003700de
:102e80000d60a000700037000d50a0000d70a00074
:102e90006d0037008fb997004300780083bf9f0013
:102ea000000478000000e00001003a00881c2200c5
:102eb0008004eb00010037008104e80089007800fd
:102ec000088044001004e000fbff3a003fb2970086
:102ed0000400e00003003200890f520001003100bd
:102ee000840478000007eb00cfb29700898f52006e
:102ef00001003600098752004368de00e1066000e9
:102f000019003a000d06780009003700efb097006d
:102f10000002200062050700e10f400003003200bc
:102f20002fb097000000e800a0b79f000c06e80053
:102f30008e0f5600f5ff3a000087eb000a003700bd
:102f4000880078003100fb0001047800efb09700a2
:102f500053050700e10f400003003200afb09700b7
:102f60008100e800a1b79f000900e9008004780013
:102f7000e10f4000f2ff3a000006eb000d00e00018
:102f80000a003a00ec033700efb09700000220007f
:102f900043050700e10f4000030032002fb1970006
:102fa0000201e800a2b79f000c06e8008e0f560051
:102fb000f5ff3a00e00337008fb99700430078002f
:102fc00083bf9f00cf80de0001017800820178007e
:102fd0000205be000004be000203be000002be00e7
:102fe0004822de00482edd0004027600c47f9f00e8
:102ff0000d48a3000a0032000404e000080032007b
:10300000e14f420006003200d1fb2f000180470053
:10301000044878001840980029002000020037007a
:10302000d07f9f0019002000d2fb2f0002844700b0
:10303000a6ff3700c3fb2f000384470019002000c0
:10304000a2ff37000d0cb300007020000082660064
:10305000270232000dc8a3000200320064002000e5
:10306000b4b79f000d48a300050032000fba9700c7
:103070004401be004400be0084bf9f00040037002e
:103080008fba97004500be0085bf9f00bef60700bf
:10309000e0af9f00f1af9f0082b79f0093b79f0002
:1030a0006022b8006033b8006fa89700ffa89700af
:1030b0000fb197009fb197005cfc07000000e00093
:1030c0000a003d006fa89700ffa897000fb1970076
:1030d0009fb1970003f0a200e0af9f00f1af9f0007
:1030e00082b79f0093b79f003d00b3000000eb0044
:1030f00080a79f006022b8006033b8006fa89700d7
:10310000ffa897000fb197009fb197004cfc0700f4
:103110000000e000340032006fa89700ffa897007d
:103120000fb197009fb1970012f7070003fc2f0023
:103130000381470047fc07000fa097000000e9004b
:103140006300b900a2002000110009000200d800ad
:103150008000fd0081a79f000100e00002003d000b
:103160000100e90080a79f000fa497000840ea0033
:1031700029fe07006faa9700ffaa97000fb39700d8
:103180009fb39700b4fb0700a0af9f00b1af9f00b3
:10319000c2af9f00d3af9f006022b800060020009e
:1031a00007ff230021fc07000000e00002003d00b3
:1031b0000800e9000b0037006022b800060020007c
:1031c000470224002fa89700bfa897004fa9970097
:1031d000dfa9970022fc07000000e0000200350094
:1031e0000800e80080a79f003fb29700f80f520048
:1031f00057003c00d0c6b300804f52002900360073
:103200000485fb0042062000110009000285d80059
:1032100000017800010478004311dd008bfc2100df
:103220000b0141006022b8000600200007fe2300c9
:103230000288900092889000b289900022899000c4
:1032400085fb0700a9002000809fbe001100090037
:103250000984d800000478004f00be004344dd001c
:103260000b04440048229000d8229000682390006c
:10327000f823900078fb0700801f78000102780097
:10328000110009000985d8000102fd004f007800f7
:103290004322dd000b0242005403be004402be0084
:1032a0001f0037000480fb0089fc2100ea4f520018
:1032b00014003600a2002000110009000280d8008e
:1032c00000017800010478004311dd00090141008c
:1032d0006022b8000600200007fe23004220900074
:1032e000d2209000f2219000622190005afb07004a
:1032f0004344dd00090444003802be002803be0038
:10330000070037004300dd00090040006022b800dc
:103310000600200007fe23005001be004000be0052
:103320004dfb07000002be000203be006fa897001d
:10333000ffa897000fb197009fb19700d8f707003b
:10334000e0af9f00f1af9f0082b79f0093b79f004f
:103350000fa49700e90f540015003c006022b8004c
:103360006033b8006fa89700ffa897000fb19700cf
:103370009fb19700b2fb07000000e000320032006e
:103380006fa89700ffa897000fb197009fb1970013
:10339000b8fb0700e00f5000e08f5800e00f590025
:1033a000e08f590028003a00e10f54002600340055
:1033b0000400200005002e00b6e0220017012400c2
:1033c0002fa89700bfa897004fa99700dfa99700e3
:1033d00096fb07000000e00002003d00730054006f
:1033e000010037007200540080a79f000fc09700b3
:1033f00089fd0700a0af9f00b1af9f00c2af9f0043
:10340000d3af9f000002be000203be006fa897006a
:10341000ffa897000fb197009fb19700fbf5070039
:1034200094fb07000205be000004be006000b80067
:103430006011b800a0a79f00b1a79f00c2a79f007e
:10344000d3a79f002e0037006fa89700ffa8970012
:103450000fb197009fb1970086fb07000205be00e1
:103460000004be00e00f5000e08f5800e00f59004c
:10347000e08f590002003500affb07001300370052
:1034800010002000010020006011b800080060005a
:10349000898060000a0161008b8161008b03d1008b
:1034a0000a83d3008982d3000882d300000072000f
:1034b0008180720002017300838173009efb07000c
:1034c0000002be000203be0075f707000002be0046
:1034d0000203be006fa89700ffa897000fb19700e6
:1034e0009fb19700c7f50700a0a79f00b1a79f0055
:1034f000c2a79f00d3a79f000000eb0080a79f00fa
:1035000014c0b300851222000b0037000400fb003a
:103510004300dd00050040005001be004000be0039
:103520000040e10001c8e10002d0e10003d8e10061
:10353000030039000442e800f44f5200f3ff3a0060
:10354000c47f9f000400fb00bfb0970000804000d4
:103550008fa09700010040004fb197000007510075
:10356000bfb197000300e000010032000e07e90040
:1035700063806600010032000e07e9000d28a300f9
:1035800026003200e18066000d18a3000c00320016
:10359000d00220000100e00001003a000080e900b4
:1035a000efb09700be030700e10f400018003200a3
:1035b0002fb297000402e800a4b79f001400370060
:1035c0000100e00012003200efb09700000220007e
:1035d000b3030700e10f40000d003200afb29700c7
:1035e0008502e800a5b79f0009003700efb09700fb
:1035f00000032000aa030700e10f4000030032008f
:103600002fb697000c06e800acb79f000e07e90044
:103610000e00e000f5ff3c003d0037000d38a30030
:103620000a0032000b003700efb0970000022000c4
:103630009b030700e10f4000030032002fb097000a
:103640000000e800a0b79f000e07e9000e00e000b0
:10365000f5ff3c00e18066000d18a3000c0032006d
:10366000d00220000100e00001003a000080e900e3
:10367000efb097008a030700e10f400024003200fa
:10368000afb097008100e800a1b79f00200037008d
:103690000100e0001e003200efb0970000022000a1
:1036a0007f030700e10f4000190032002fb197009f
:1036b0000201e800a2b79f00150037000000fb00e0
:1036c0004300dd0081122200010040003002be00f4
:1036d0002003be000800be000a01be00cdf90700ad
:1036e000a4002000050020006033b800d0f90700d6
:1036f0000003b000efb0970069030700e10f40003e
:1037000003003200afb197008301e800a3b79f0028
:103710004f7a97000440e900c07f9f00e14f4000ce
:10372000e6ff3a000b003700efb0970000032000df
:103730005b030700e10f400003003200afb29700c7
:103740008502e800a5b79f000fa097000000e900e0
:1037500080a79f000fa097000000e000f2ff3c0050
:103760003fb6970020c1b300f20f560001003c00a5
:103770006fe09700c07f9f00cf7897000100fb00ab
:103780003fb1970000005100e0a79f000104e00056
:1037900008003200efb09700e0022000400307006d
:1037a000e10f400003003200afb197008301e80051
:1037b000a3b79f004f78970097fc07000002be0058
:1037c0000203be002fa09700bfa097004fa1970053
:1037d000dfa1970020fa0700a6fa07001e003700b5
:1037e0000000fb004300dd008c1222000c004000b2
:1037f0003002be002003be000800be000a01be0069
:1038000084f90700a4002000050020006033b80000
:1038100087f907000003b000efb09700200307000e
:10382000e10f4000030032002fb297000402e800cd
:10383000a4b79f00cf7a97000500fb004300dd008e
:103840000c0040003002be002003be000800be0095
:103850000a01be0076f907000205be000004be00a2
:103860004f7e97000c40e900c07f9f00e14f400071
:10387000dbff3a000006eb0009003700efb09700cd
:103880000003200006030700e10f400003003200a0
:103890002fb097000000e800a0b79f000c06e800da
:1038a000efa09700810f5600f4ff3a000d38a300f7
:1038b000a10132000e00e0009f0134000006eb0081
:1038c000efb0970000022000f5020700e10f400072
:1038d000030032002fb197000201e800a2b79f0059
:1038e0000c06e8008e0f560093013200f4ff3700fb
:1038f0000d007800000cb20028003a000d00e00036
:1039000005003d008fb997004305be004304be008b
:1039100083bf9f00140037000d48a3000b00320046
:103920000fba97004400be0084bf9f004f89de009d
:10393000cf91de000002be0002037800820378000f
:103940000605be000404be00070037008fba9700ca
:103950004500780085bf9f0000047800cfc4de00da
:10396000090578008a057800e00f5400e08f5c00bc
:10397000e00f5d00e08f5d0020003d003d00b300e2
:103980006000b8006011b800080450008984580035
:103990000a0559008b855900180037000d00e0001a
:1039a00005003d000fbe97004c05be004c04be0054
:1039b0008cbf9f00110037000d48a30008003200a3
:1039c0008fba97004500be0085bf9f0004017800b4
:1039d000840178000205be000004be000700370025
:1039e0000fbe97004c0078008cbf9f000004780049
:1039f000090020000a0020000b0020003fb09700c3
:103a00000000e00007003a00e00f5400e08f5c0087
:103a1000e00f5d00e08f5d0002003a001100200021
:103a2000b1b79f000d0778000e0cb2000004200013
:103a3000800f57002f00320003003c000e00e00012
:103a4000070032003f00370000082000800f5700b9
:103a500014003200000c2000800f570039003a009b
:103a600014c0b300851222000b0037000400fb00d5
:103a70004300dd00050040005001be004000be00d4
:103a80000040e10001c8e10002d0e10003d8e100fc
:103a90002b0039000442e800f44f5200f3ff3a00d3
:103aa0002700370000012000010020006011b8004d
:103ab00014c0b3000040e10001c8e10002d0e10001
:103ac00003d8e1001e003900450020000000d000ae
:103ad0008180d2000281d2008381d2008502e90078
:103ae000faff3a000442e800f04f5200f1ff3a00ba
:103af0001300370080002000010020006011b80092
:103b000014c0b3000040e10001c8e10002d0e100b0
:103b100003d8e1000a0039003c0020000000d0007a
:103b20008180d2000281d2008381d2000c06e9009c
:103b3000faff3a000442e800f54f5200f1ff3a0064
:103b4000c47f9f00cf7897000100fb003fb1970032
:103b5000820f500002003d00c27f9f00040037002a
:103b6000bfb19700808f510001003d00b0b79f00aa
:103b70004fb297000400e00004003200638066004a
:103b8000020032000402e900c4b79f000de8a30060
:103b90000b003200cfb297003fb697008c8f5200d7
:103ba00003003c000000eb00c0b79f00040037009a
:103bb000cfb097003fb1970082805000c1b79f00ff
:103bc000cf7997000300fb000002eb0094a79f0051
:103bd000cfb29700808f5200020034000080520064
:103be00090a79f000d28a30037003200e1806600f7
:103bf0000d18a3000c003200d00220000100e000ec
:103c000001003a000080e900efb0970024020700ad
:103c1000e10f40000e0032002fb697000c06e800be
:103c2000acb79f000a0037000100e0000800320036
:103c3000efb097000002200019020700e10f4000da
:103c4000030032002fb097000000e800a0b79f00eb
:103c50009fa097000100e0000f0032000006eb007b
:103c6000efb09700000320000d020700e10f4000b5
:103c7000030032002fb197000201e800a2b79f00b5
:103c80000c06e8009fa19700830f5600f4ff3a004e
:103c90000002eb0094a79f00bfb29700c328dd008d
:103ca000001222008080400091af9f004228dd007a
:103cb0006400500080af9f006328b900f0a79f0008
:103cc00063065000820037001fa697000c00e0003a
:103cd00011003200688066000f003a00000678008c
:103ce000efb0970000022000ed010700e10f400057
:103cf000030032002fb097000000e800a0b79f003b
:103d00000c06e8009fa09700810f5600f4ff3a00d0
:103d10000001eb0092a79f00e18066000d18a30050
:103d20000c003200d00220000100e00001003a0047
:103d30000080e900efb09700d9010700e10f4000d3
:103d4000d5ff3200afb197008301e800a3b79f0011
:103d5000d1ff37000100e000cfff3200efb0970045
:103d600000022000ce010700e10f4000caff320030
:103d70002fb297000402e800a4b79f00c6ff3700e7
:103d800000042000800f57003000320003003c0088
:103d90000e00e000070032003d0037000008200060
:103da000800f570011003200000c2000800f5700d8
:103db00037003a001fa897003002be002003be0063
:103dc0000800be000a01be0012f80700a40020008f
:103dd000050020006033b80015f8070004c3b300e5
:103de00004424000c47f9f0029003700f51c2200d8
:103df000d5b79f000d58a30002003a00001e220014
:103e0000d0b79f0014002000050020006033b800e8
:103e10008fa897008100e900050033000402d0005c
:103e20008582d2000683d2008783d200f9ff370053
:103e30000800be000a01be00f6f707006f00600030
:103e40005fb1970062407800100037001400200036
:103e5000050020006033b8008c0178008301e90080
:103e6000050033000402d0008582d2000683d20010
:103e70008783d200f9ff37000800be000a01be00a8
:103e8000e4f70700674060000043b000c07f9f0078
:103e90004f7a97000400fb00efb097008001070005
:103ea000e10f400003003200afb297008502e80046
:103eb000a5b79f001fa897006800500090af9f0013
:103ec0008fa89700e480500081af9f0063065600e2
:103ed000d0ff2f003fb197000090b900ffa19700dd
:103ee0000080410063005000800f5600a4ff3a009c
:103ef0000d38a300100032001fa297000400e0005c
:103f00000d0034000006eb00efb097000002200027
:103f100063010700e10f400003003200afb29700d9
:103f20008502e800a5b79f000c06e8001fa09700d7
:103f3000800f5600f4ff3a007fb19700b24078003e
:103f4000f2b79f00c17f9f000104e00014fb3a001c
:103f50002fb097004f0778004f06be004f05be00f8
:103f60004f04be008f03b10000000600889fbe0012
:103f7000000478008144780000fd2f000000440018
:103f8000e90f500002003e00000178000d003700ec
:103f9000080078008cf107000000e0000300320008
:103fa000080078008ef1070000047800080078000f
:103fb00092f107000000e0000700320090fa2f00a5
:103fc000000144000980fb00800f510002003d0009
:103fd0000280fb0001003700f00f20004f04be00fc
:103fe00000000600881f7800f010810073010700b0
:103ff000000478008bf107000000e000faff3a00af
:10400000e10f440003003200f11081000800780045
:104010009e0107004f04780000000600ec8747006f
:10402000889fbe008a9fbe008c9fbe008e1f7800b6
:1040300081bf9f0002077800f01089008046eb00e6
:10404000040137008884fb000900780075f107003f
:10405000800078000000e00002003200e1ff07006d
:10406000fc00370050c2b300804f5400f0003a000b
:104070000fbd970020c0b300c0ef9f00d1ef9f009d
:1040800081ef9f000300370040c0b300c0ef9f00e6
:104090000fbd97000fb99700b240780082bf9f0014
:1040a0008184fb0090c6b30080cf50003500320001
:1040b00017003e006640500080cf50006200320082
:1040c0000c003e007740500080cf500028003200a6
:1040d00006003e000104e0009b003200a0c2b300d5
:1040e00080cf50006e003a001d00370080c5b3003d
:1040f0001600370040c6b30080cf500021003200c8
:104100006440400080cf500065003a001200370044
:1041100030c7b30080cf50001e00320007003e00c1
:104120006740500080cf50001100320063404000d3
:1041300080cf50005a003a001400370050c7b30037
:1041400080cf50000f0032006340400080cf50000d
:1041500053003a006500370020c0b300cbff3700a2
:10416000dfe897008140e800d1ef9f00c8ff3700eb
:104170004fe9970080c0b300e24f5100c3ff3a00ff
:10418000c1ff3700acc0b300590037008cc0b3008a
:104190005700370093ff0700dfe897000104e000b5
:1041a00002003a004e017800d2b79f00f010810063
:1041b0000201070000047800e10f4000a200320075
:1041c0008fec9700120037000a85e8008abf9f0035
:1041d000160037008fb897001100fb00800f5400c5
:1041e000f9ff32005fe997000204e00003003a00a3
:1041f0005fb0970008587800d0b79f008944e90065
:104200000a003200f0108100ec0007000004780082
:104210000800e800e10f50000400360008007800b4
:1042200000f107000000e000eaff3200dfe897003d
:104230000104e00087003a008d46e8005fb1970076
:1042400001497800830037005fe897000004e00030
:1042500003003a008d46e800ce007800d1b79f00f9
:10426000f0108100d5000700e10f40007600320019
:104270005fe997000204e00003003a00dfb0970016
:1042800080587800d1b79f000fe997000241e900fc
:1042900082ef9f004240a9006e003400f0ff37001b
:1042a0000180fb0008fd2f0008004000e90f5000ce
:1042b0005f003e000a00780005f9070080ef9f00cc
:1042c00088007800030037000fb897000000e8006e
:1042d00080bf9f000fb997001200fb000100400053
:1042e000e90f5000f8ff360069ff37000cc1b3003a
:1042f0003cff0700f0108100b000070000057800c7
:104300000040eb00e0ef9f00d0022000800f55003e
:1043100005003a00f0108100a800070000057800b1
:1043200011c0b300e1ef9f008c4078000a007800d4
:104330000eff0700e14f40000a003a00f110810033
:104340000a007800d10007000d04e0004b003a009d
:10435000f0108100300090000048a30043003200bc
:10436000480037008fed97006044b8000c81fb00d7
:10437000030020000800be0022f107000004be0078
:104380008c4078000a007800f8fe07000080fb00ef
:104390000100200008044000898448008b45e900a2
:1043a00007003200f010810084000700000578004b
:1043b0008c407800edfe0700e14f4000ebff3a0033
:1043c0008c4078000a007800e8fe0700e14f4000ca
:1043d00003003a00f11081000a007800ab000700ea
:1043e0006fe997000204e00002003200600414004c
:1043f000e0841c005fe897000004e00015003a002c
:104400008d46e800cfe89700e4cf500003003a0063
:104410004e0078000888be000e0037000e81e900cb
:1044200002077800120078000808780009003700b9
:10443000f010810061000700808f540005003200f9
:10444000e10f40000b003a000d04e0000d003200c7
:104450000a0037008fb897003144780081bf9f0071
:104460000804e000f7fe3a00040037000000eb000b
:1044700005003700f1108100840007000d80fb006b
:10448000010037000080eb004f0778004f06be00a8
:104490004f05be004f04be00cf00b1000000060073
:1044a000889fbe000001780001047800b1009000f0
:1044b0000118a3003d0032000198a30003003a0058
:1044c000180090000000e00038003a000190a000c1
:1044d0003104980082047800f90fb20018009000af
:1044e0000000e00002003a0028009000000c780074
:1044f000ea8f540006003a00380090000078a300cc
:1045000003003a0088007800d0002000e4ff070094
:104510009800900058009000808f50000b003200ef
:104520000100e8001004980018007800095878008d
:10453000000c780011c0b300c021220001487800af
:10454000ea8f540006003200190037008800780016
:10455000094078006a0007008004780014003700e2
:10456000380090000088a30011003200180190006c
:10457000a80090004800900032f0070098009000da
:10458000810f500004003200380090000003b30097
:10459000300498008084eb000000eb0010049800c9
:1045a00028009000000c7800010037008084eb00a8
:1045b000090078004f04be0000000600881f780044
:1045c00000047800b00090000148a30007003a0002
:1045d0000108a300050032000198a3000800320082
:1045e000100090000000e00005003200380090004c
:1045f0000040a000300498008080eb0020003700cd
:104600000190a10031049800180090000000e00023
:10461000060034000000e90010049800180078003b
:10462000b080fb00000c78000600370038009000d6
:104630000068a300edff3a0008007800730007004f
:1046400080007800380090000078a3000c003a0049
:10465000fa8f500008003a00280090000000e000a7
:10466000e2ff3200180090000000e80010049800fb
:10467000180ce900ddff3700ed8f5000e2ff32003b
:10468000010078004f0478000000060080017800e7
:10469000e10f400017003200310090000008a30035
:1046a000140032000098a30012003a00210290008a
:1046b0000400e0000f003200110190005100900052
:1046c000800f51000b00320011007800840f500061
:1046d00002003a008008e800020037000200e8000b
:1046e000900098001100e9008008780003487800e5
:1046f000010037008081eb00030078000000060015
:104700000200fa00889fbe00a0ff9f00010478000d
:10471000b1009000810478000904b2000200320068
:104720000000fb00360037000118a30005003a0026
:104730000103b30031049800190498000080eb00d5
:104740002f003700580090000000e00006003a00fb
:104750004800900012002000e6805700b9ef0700e3
:104760001904980024003700280090000000e000a1
:1047700008003a008021220020049800000c7800f4
:104780002000200050049800100498000130a00080
:104790003104980018019000a80090004800900093
:1047a000a8ef070028009000000c78000080eb00c4
:1047b0001004980018007800aff8970001587800ae
:1047c000000c78002ff89700ea4f50000a003a00da
:1047d000380090000088a300070032001801900004
:1047e000a80090004800900096ef07001904980078
:1047f000a8009000010c7800aff897000100fb00c2
:104800004f04be000080fa00000006000200fa001b
:10481000889fbe008a1f7800000478000000eb002b
:1048200010049800380090008080eb000008a3007e
:104830003f003200c02122001004e00010003200ce
:10484000491f2200aa1f22001a0078006c054500ab
:104850002010b20021102000810f500002003a0009
:104860000900780037000700ec8444008021220012
:10487000808f5400f4ff3a00c02122000048eb0072
:1048800048009000580190000200e0000d003a003e
:104890001204980012002000e8805700a0ef0700e3
:1048a000e10f500003003a000ff897008080fb00f2
:1048b0001f003700380090000040a000300498002e
:1048c00012003700a800900095ef07001004980030
:1048d0000000e00003003200e10f40000d003a004c
:1048e00003003700380090000040a00002003700ad
:1048f000380090000003b30030049800a800900036
:10490000010c78000000eb00100498008080eb00a0
:1049100007003700a8009000010c78000000e900b3
:104920001004980001007800b080fb00000c7800b3
:10493000010078004f0578004f04be000080fa00a7
:1049400000000600881f7800000478003000900006
:104950000008a30007003200800078000120b200a8
:1049600004003a0011049800a8009000010c78009f
:10497000170037000018a300190032000098a300a8
:1049800017003200a80090000100e000140032007f
:10499000180190000200e000110032004800900071
:1049a00028ef070098009000810f500003003200ac
:1049b000380090000003b300300498000000eb00c2
:1049c0001004980028009000000c78003800900037
:1049d0000058a300020032000080eb000100370005
:0c49e0000000eb004f047800000006000f
:020000040000fa
:020000040001f9
:0457f800ae7b000084
:020000040000fa
:020000040001f9
:0457fc00fe1f00008c
:020000040000fa
:10000800e0020000e0020000e0020000e002000060
:10001800e0020000e0020000e0020000e002000050
:10002800e0020000e0020000e0020000408f000053
:10003800e0020000e0020000e00200007a90000008
:100048009c900000e0020000e0020000b890000070
:10005800e0020000e0020000e0020000e002000010
:10006800e0020000e0020000e0020000e002000000
:10007800e0020000e0020000e0020000e0020000f0
:10008800e0020000e0020000e0020000e0020000e0
:10009800e0020000e00200007c910000e0020000a5
:1000a800e0020000e0020000e0020000e0020000c0
:1000b800e0020000e0020000e0020000e0020000b0
:1000c800e0020000e0020000e0020000e0020000a0
:1000d800e0020000e0020000e0020000e002000090
:1000e800e0020000e0020000e0020000e002000080
:1000f800e0020000e0020000e0020000e002000070
:10010800e0020000e0020000e0020000e00200005f
:10011800e0020000e0020000e0020000e00200004f
:10012800e0020000e0020000e0020000e00200003f
:10013800e0020000e0020000e0020000e00200002f
:10014800e0020000e0020000e0020000e00200001f
:10015800e0020000e0020000e0020000e00200000f
:10016800e0020000e0020000e0020000e0020000ff
:10017800e0020000e0020000e0020000e0020000ef
:10018800e0020000e0020000e0020000e0020000df
:10019800e0020000e0020000e0020000e0020000cf
:1001a800e0020000e0020000e0020000e0020000bf
:1001b800e0020000e0020000e0020000e0020000af
:1001c800e0020000e0020000e0020000e00200009f
:1001d800e0020000e0020000e0020000e00200008f
:1001e800e0020000e0020000e0020000e00200007f
:0801f800e0020000e00200003b
:020000040000fa
:10020800e0020000e0020000e0020000e00200005e
:10021800e0020000e0020000e0020000e00200004e
:10022800e0020000e0020000e0020000408f000051
:10023800e0020000e0020000e00200007a90000006
:100248009c900000e0020000e0020000b89000006e
:10025800e0020000e0020000e0020000e00200000e
:10026800e0020000e0020000e0020000e0020000fe
:10027800e0020000e0020000e0020000e0020000ee
:10028800e0020000e0020000e0020000e0020000de
:10029800e0020000e00200007c910000e0020000a3
:1002a800e0020000e0020000e0020000e0020000be
:1002b800e0020000e0020000e0020000e0020000ae
:1002c800e0020000e0020000e0020000e00200009e
:1002d800e0020000e0020000e0020000e00200008e
:1002e800e0020000e0020000e0020000e00200007e
:1002f800e0020000e0020000e0020000e00200006e
:10030800e0020000e0020000e0020000e00200005d
:10031800e0020000e0020000e0020000e00200004d
:10032800e0020000e0020000e0020000e00200003d
:10033800e0020000e0020000e0020000e00200002d
:10034800e0020000e0020000e0020000e00200001d
:10035800e0020000e0020000e0020000e00200000d
:10036800e0020000e0020000e0020000e0020000fd
:10037800e0020000e0020000e0020000e0020000ed
:10038800e0020000e0020000e0020000e0020000dd
:10039800e0020000e0020000e0020000e0020000cd
:1003a800e0020000e0020000e0020000e0020000bd
:1003b800e0020000e0020000e0020000e0020000ad
:1003c800e0020000e0020000e0020000e00200009d
:1003d800e0020000e0020000e0020000e00200008d
:1003e800e0020000e0020000e0020000e00200007d
:0803f800e0020000e002000039
:020000040000fa
:10800000b80b000098840000cb1c0000f8f10000c1
:10801000fd1c000010140000321d0000f0290000bb
:10802000321d0000c8ef0000841d0000d87400005d
:10803000031e000028130000061e00004cfc000078
:10804000251e000084fc0000421e0000a4ab0000be
:10805000501e0000fcbf0000981e000000c8000079
:10806000c31e0000ec170000ba1e00004c7900008f
:10807000d51e000048c50000e71e00001c4e000091
:10808000ea1e00007c4d0000f41e0000782a00006b
:10809000da1e000098370000d01e0000b009000072
:1080a000be1e000018fc0000a91e00007cba0000e3
:1080b0009b1e0000e0d60000a71e0000b4a6000032
:1080c000811e000004340000ef1e0000506e00000e
:1080d000e61e000038620000741e00000c11000053
:1080e000601e0000ec6d0000ec1d0000b8be00003a
:1080f000d91d000040500000931d000008720000d0
:10810000681d000004440000a51c0000bc1800000d
:10811000911c00009ccc00004d1c0000ecc0000035
:10812000ff1b0000bc8700002d1b0000181c000076
:10813000611a000044870000601a00005c8500009e
:10814000301b0000245d0000861b00009428000006
:108150009b1b0000f05600000b1c0000ec5d0000b3
:10816000b21c0000ccf90000081d0000c493000000
:108170009f1c00009c9a0000750d0000b8ac000028
:10818000420d0000688100007c0d0000002d000001
:10819000b10d000030210000880d0000d8a50000be
:1081a0002d0e0000b8220000530e000018d300006e
:1081b000650e000080f90000590e000020c8000084
:1081c000680e000050a80000210e0000e46e0000c0
:1081d000210e000024c400004a0e000084d50000d7
:1081e000830e000068d100008a0e0000782e000087
:1081f000e60e00001c0000000c0f0000e84200002a
:10820000d40f0000fc9600002f1000007c480000f6
:108210003a100000e89600008e1000008ceb000081
:108220007b110000c0d70000ec1100002cc9000039
:108230004312000088880000eb1200006006000076
:108240002b1400000c7800005d14000048b0000002
:10825000cf1400001cf200002c150000148a00004e
:108260004b16000088740000ce160000d0d5000028
:10827000a1170000a85700007a1700009090000096
:1082800009170000b86f0000a8160000d8160000fb
:1082900096160000b4f00000cc1500008c8c000095
:1082a0005e150000bc9800003d13000068d8000077
:1082b00094110000601000007e110000102d0000dd
:1082c000101200008457000003120000f8fd0000a7
:1082d00075110000e476000067100000644900009a
:1082e000e90e0000001f00001c1f00001e1f000000
:1082f0001e1f00001f1e00001f1e00001f25000083
:10830000732c0000257300002c250000732c000046
:10831000257500002c250000752c00002575000037
:108320002c250000732c0000257300002c25000074
:10833000732c0000257500001a0000002575000050
:108340002c250000752c0000257500002c25000050
:10835000752c0000257500002c250000752c0000f0
:10836000257500002c250000752c000025750000e7
:108370002c250000752c0000257500001a00000057
:10838000257500002c250000752c000025750000c7
:108390002c250000752c0000257500002c25000000
:1083a000752c0000257500002c250000752c0000a0
:1083b000257500002c250000752c00002575000097
:1083c0002c250000752c0000257500001a00000007
:1083d000257500002c250000732c0000257300007b
:1083e0002c250000752c0000257500002c250000b0
:1083f000751a00000053000048550000542000008a
:108400004f4b000000410000542b00004349000086
:108410005053000048550000540d0000004f00006c
:108420004b000000415400000d00000041540000ca
:108430002b490000464300003d3200002c30000074
:108440000d000000415400002b4900005052000074
:108450003d3100003135000032300000300d0000a9
:1084600000410000542b0000534a00004452000019
:108470003d3100002c3100002c320000302c000077
:10848000310d0000002b000043460000554e000057
:1084900000410000542b000043460000554e0000f0
:1084a0003f0d0000002b0000435200004547000034
:1084b00000410000542b00004352000045470000db
:1084c0003f0d0000002b0000434700004154000016
:1084d00054000000415400002b43000047410000bd
:1084e000545400003f0d000000410000542b0000d8
:1084f0004347000041540000543d0000310d00008e
:108500000053000054410000544500003a000000b0
:10851000415400002b430000495000005354000018
:1085200041540000555300000d0000004950000068
:10853000204900004e49000054490000414c000011
:108540000049000050200000535400004152000038
:108550005400000049500000204300004f4e00002e
:108560004649000047000000495000002047000035
:1085700050520000534100004354000000490000e5
:108580005020000053540000415400005553000097
:108590000054000043500000204300004f4e0000f4
:1085a0004e45000043540000494e000047000000c3
:1085b0005544000050200000434f00004e4e000084
:1085c00045430000544900004e470000005300009e
:1085d0004552000056450000522000004c49000062
:1085e00053540000454e0000494e00004700000073
:1085f000434f00004e4e0000454300005420000051
:108600004f4b000000540000435000002043000086
:108610004c4f0000534900004e4700000055000039
:1086200044500000204300004c4f0000534900001c
:108630004e4700000054000043500000204300005b
:108640004c4f00005345000044000000554400001a
:1086500050200000434c00004f53000045440000f0
:10866000005000004450000020440000454100003c
:1086700043540000002b0000434200004300000070
:10868000415400002b430000424300000d00000055
:108690002b4300004d5400004500000041540000f1
:1086a0002b4300004d540000453f00000d0000002a
:1086b0002b4300005351000000410000542b0000e8
:1086c00043530000510d000000410000542b0000f6
:1086d00043550000534400003d3100002c220000af
:1086e00025730000220d0000002b00004355000000
:1086f00053440000002b0000434500004e4700009b
:108700003a3000002c000000415400002b430000d0
:10871000454e0000473d0000322c0000310d0000a6
:108720000025000058000000415400002b430000c9
:10873000454e0000473d0000300d000000410000a4
:10874000542b0000475300004e0d00000041000074
:10875000542b000043430000494400000d0000007a
:108760005265000076690000736900006f6e0000ba
:108770003a000000415400002b430000474d000028
:10878000520d000000410000542b0000434d00003a
:10879000474600003d3100000d0000002b43000063
:1087a0004d4700004c000000415400002b430000e6
:1087b0004d4700004c3d0000224100004c4c0000a1
:1087c000220d000000730000706100007373000050
:1087d000232300000070000061730000733a000062
:1087e0000a250000731a0000003900003837000025
:1087f00036000000736500007470000061720000b4
:10880000616d0000312300000073000065740000fa
:1088100070610000726100006d32000023000000f2
:10882000736500007470000061720000616d0000eb
:1088300033230000007300006574000070610000c5
:10884000726100006d3400002300000067650000c5
:108850007470000061720000616d0000312300003f
:108860002300000067650000747000006172000062
:10887000616d0000322300002300000067650000e6
:108880007470000061720000616d0000332300000d
:108890002300000067650000747000006172000032
:1088a000616d00003423000023000000706f0000a1
:1088b00073320000736d000073230000230000007a
:1088c0004c610000743a0000252e0000376600005d
:1088d0000a0d00004c6f00006e3a0000252e0000cb
:1088e000376600000a0d0000253200002e3200001d
:1088f000752f0000253200002e320000752f000079
:1089000032300000253200002e320000750a0000cf
:108910000d250000322e0000327500003a250000bf
:10892000322e0000327500003a250000322e000081
:10893000327500000a0d0000257500006b6d000007
:108940002f6800000a0d0000257500006465000016
:10895000670a00000d0000004d430000433a00008c
:10896000257500002c4d00004e4300003a25000004
:10897000752c00004c410000433a000025750000b2
:108980002c430000494400003a250000750a00000d
:108990000d000000496700006e3a00004f660000bd
:1089a000660a00000d000000496700006e3a0000f2
:1089b0004f6e00000a0d00000056000063630000c7
:1089c0003a250000322e000032660000561a0000e0
:1089d000006200006c6f0000636b00002323000046
:1089e000004300006f6d00006d6100006e640000c8
:1089f00020220000626c00006f6300006b22000008
:108a00002061000063630000657000007465000071
:108a1000641a000000730000626c00006f630000c5
:108a20006b23000023000000436f00006d6d000009
:108a3000616e00006420000022730000626c000080
:108a40006f6300006b220000206100006363000080
:108a50006570000074650000641a00000075000075
:108a60006e6200006c6f0000636b00002323000047
:108a7000004300006f6d00006d6100006e64000037
:108a800020220000756e0000626c00006f63000021
:108a90006b2200002061000063630000657000002d
:108aa00074650000641a0000007300007461000027
:108ab000747500007323000023000000494d00007e
:108ac000454900003a250000730a00000d560000d9
:108ad000657200003a250000750a00000d73000061
:108ae000696d000072650000763a00002573000091
:108af0000a0d000053740000735f0000643a000028
:108b0000257500000a0d00006770000072730000f8
:108b10005f730000747300003a250000750a0000be
:108b20000d430000504e00003a250000752c000057
:108b30004e570000433a0000257500001a0000005f
:108b400063700000757200006573000065740000ba
:108b500023230000004300006f6d00006d610000e2
:108b60006e64000020220000637000007572000037
:108b7000657300006574000022200000616300003e
:108b80006365000070740000656400001a00000056
:108b90007374000073720000657300006574000058
:108ba00023230000004300006f6d00006d61000092
:108bb0006e640000202200007374000073720000d5
:108bc00065730000657400002220000061630000ee
:108bd0006365000070740000656400001a00000006
:108be000677300006d6f0000666600006f6e000026
:108bf00023230000004300006f6d00006d61000042
:108c00006e64000020220000677300006d6f00009a
:108c1000666600006f6e00002220000061630000a5
:108c20006365000070740000656400001a000000b5
:108c300067700000736f0000666600006f6e0000d2
:108c400023230000004300006f6d00006d610000f1
:108c50006e6400002022000067700000736f000047
:108c6000666600006f6e0000222000006163000055
:108c70006365000070740000656400001a00000065
:108c8000577200006f6e00006720000070610000e6
:108c9000737300001a000000415400002b430000d1
:108ca0004d470000443d0000257500000d00000008
:108cb000415400002b4300004d470000533d00008d
:108cc000222b000025730000220d0000003e000052
:108cd000200000002b4300004d470000530000001f
:108ce00041540000453000000d00000041540000d8
:108cf0002b4300004950000051530000454e000036
:108d0000443d0000310d000000410000542b0000e4
:108d10004349000050530000454e0000443d000010
:108d2000313900000d000000433000000041000018
:108d300054450000310d000000410000542b00009c
:108d40004349000050530000454e0000443d0000e0
:108d5000257500000d0000004330000039000000c0
:108d6000434c00004f530000452000004f4b0000d3
:108d700000410000542b0000434900005043000014
:108d80004c4f0000534500003d3100000d00000035
:108d9000415400002b430000495000004d55000095
:108da000583d0000300d000000410000542b000031
:108db00043490000504d00004f440000453d000075
:108dc000300d000000410000542b00004353000010
:108dd000545400003d22000025730000222c0000a6
:108de00022250000732200002c22000025730000c1
:108df000220d000000410000542b000043530000ee
:108e0000545400003d22000025730000220d000094
:108e100000410000542b000043490000494300007a
:108e2000520d0000003100003000000041540000ed
:108e30002b43000049460000535200000d00000083
:108e4000415400002b4300004950000053540000df
:108e500041520000543d00002255000044500000e3
:108e6000222c000022250000732200002c2200008a
:108e700025750000220d000000410000542b000069
:108e80004349000050530000544100005254000078
:108e90003d22000054430000502200002c2200001c
:108ea00025730000222c00002225000075220000fe
:108eb0000d000000434f00004e4e000045430000ef
:108ec000540000002b4300004d54000049000000f6
:108ed0002b5300004a440000523a0000204a000090
:108ee000414d00004d4900004e4700002044000065
:108ef0004554000045430000544500004400000074
:108f00002b5300004a440000523a0000204e00005b
:108f10004f2000004a4100004d4d0000494e000026
:108f200047000000524d000043000000474700008a
:0c8f300041000000475300004100000019
:020000040000fa
:108f3c000600fa00000f780011079800220798002d
:108f4c001e00780000e288001e00900010e28800ed
:108f5c002e00900020e2880010c0b30059feb7002c
:108f6c000080fa00000006000400fa00000f7800f0
:108f7c00110798001e00780010e288001e00900077
:108f8c0020e2880010c0b30058feb7000080fa0041
:108f9c00000006000000fa0058debf000004e000ec
:108fac00200032000000eb00b0f28800208120008d
:108fbc0040408800d482a90020e28000e6ee070041
:108fcc00b9ee0700d4c2bf000080fb004400de00f5
:108fdc000080fb006100600021ef07005bdebf003a
:108fec00614060000004e00004003200d482a8005c
:108ffc0010002000b0f288000800370010e280005a
:10900c0080e507000001780011e2800040408000fc
:10901c0082e507000000e000e4ff3a000040eb00ae
:10902c0058feb7006eee0700dbff37000000fa00b9
:10903c0059debf000004e0002f0032000000eb00fe
:10904c00b0f288000a00370001e28000114078007d
:10905c000000fb00201188000100e80000e28800fd
:10906c0023c2bf00614060000004e000fcff32003e
:10907c0000e28000104078000004e000f2ff3a00ab
:10908c002081200040408800d482a90020e280008a
:10909c00b1ee070084ee0700d4c2bf000080fb00d5
